:100000000C9463000C948B000C948B000C940405EE
:100010000C9404050C9404050C948B000C948B0038
:100020000C948B000C948B000C948B000C948B0024
:100030000C948B000C948B000C948B000C948B0014
:100040000C947E050C948B000C94EE050C94C80562
:100050000C948B000C948B000C948B000C948B00F4
:100060000C948B000C948B000000000024002700EF
:100070002A0000000008000201000003040700003D
:1000800000000000000000000000250028002B00F8
:1000900000000000230026002900040404040404D6
:1000A0000404020202020202030303030303010227
:1000B00004081020408001020408102001020408F6
:1000C00010202006D90911241FBECFEFD8E0DEBFD3
:1000D000CDBF11E0A0E0B1E0EEEEF4E102C005908A
:1000E0000D92A237B107D9F722E0A2E7B1E001C033
:1000F0001D92AD39B207E1F710E0C2E6D0E004C0CE
:100100002197FE010E94500AC136D107C9F70E940B
:10011000E0060C946A0A0C9400002091C30130910F
:10012000C4012817390771F49091C2018091C1016F
:10013000981741F0E091C201F0E0EF57FE4F808147
:1001400090E008958FEF9FEF089508951F93CF9348
:10015000DF93DC015C962D913C915D972115310573
:1001600039F481E090E013969C938E9312973DC0F2
:100170005196ED91FC91529750969C915097892FF2
:1001800080951FB75E964C915E9741FB772770F97B
:1001900041FD6095F8944081772311F0492B01C00F
:1001A00048234083E9012197F1F748E0508160FF3F
:1001B00002C0592B01C058235083E9012197F1F760
:1001C0006695415099F7772321F0908189238083A8
:1001D00003C08081982B90831FBF5C968D919C916A
:1001E0005D970197F1F721E030E0C901DF91CF91F0
:1001F0001F9108952091C3013091C4012817390738
:1002000071F48091C1012091C20190E0805C9F4F08
:10021000821B910960E470E00E94F309089580E078
:1002200090E008952091C3013091C4012817390747
:10023000B9F49091C2018091C101981789F0E091C1
:10024000C201F0E0EF57FE4F80812091C20130E003
:100250002F5F3F4F2F7333272093C20190E0089503
:100260008FEF9FEF0895E091C301F091C401E8176B
:10027000F90769F4A389B4899C91858980958923BC
:100280008C931092C4011092C30181E0089580E024
:100290000895833081F028F4813099F08230A1F004
:1002A00008958730A9F08830B9F08430D1F4809176
:1002B00080008F7D03C0809180008F7780938000C5
:1002C000089584B58F7702C084B58F7D84BD08956D
:1002D0008091B0008F7703C08091B0008F7D8093B4
:1002E000B00008951F93CF93DF93282F30E0F901DA
:1002F000EE58FF4F8491F901E255FF4FD491F90177
:10030000E656FF4FC491CC23C9F0162F81110E94ED
:100310004901EC2FF0E0EE0FFF1FEA57FF4FA591C8
:10032000B4918FB7F894111105C09C91ED2FE09511
:10033000E92302C0EC91ED2BEC938FBFDF91CF91BD
:100340001F910895CF93DF9390E0FC01E255FF4F9A
:100350002491FC01E656FF4F8491882361F190E0DF
:10036000880F991FFC01E859FF4FC591D491FC01FA
:10037000EA57FF4FA591B491611109C09FB7F89456
:100380008881209582238883EC912E230BC06230D4
:1003900061F49FB7F8943881822F809583238883F6
:1003A000EC912E2B2C939FBF06C08FB7F894E88159
:1003B0002E2B28838FBFDF91CF9108953FB7F894FC
:1003C00080917D0190917E01A0917F01B09180018B
:1003D00026B5A89B05C02F3F19F00196A11DB11DA0
:1003E0003FBFBA2FA92F982F8827820F911DA11DDB
:1003F000B11DBC01CD0142E0660F771F881F991F18
:100400004A95D1F708950F931F93CF93DF93EC0193
:100410008F858823F9F02E8530E0F901EE58FF4FE3
:100420008491F901E255FF4F0491F901E656FF4F1F
:1004300014911123E9F081110E944901E12FF0E0AC
:10044000EE0FFF1FE057FF4FA591B491EC91E02311
:1004500079F0E1CF0E94DE01088919892A893B8958
:10046000DC01CB01801B910BA20BB30BB7FDF2CFCC
:10047000DF91CF911F910F910895CF92DF92EF926C
:10048000FF92CF93DF93FC01278521110DC06A01F4
:100490007B01EC010E94DE01C60ED71EE81EF91E8C
:1004A000C88AD98AEA8AFB8ADF91CF91FF90EF90C0
:1004B000DF90CF900895EF92FF920F931F93CF9309
:1004C000DF9300D0CDB7DEB7082F162F82E692E07B
:1004D0002A8349830E94030282E6E82E82E0F82EF6
:1004E000D70114968D919C911597DC01ED91FC91AB
:1004F0000190F081E02D602F0995F70184819581AD
:10050000DC01ED91FC910190F081E02D612F0995C6
:10051000F70184819581DC01ED91FC910190F081DE
:10052000E02D4981642F0995F70184819581DC01D3
:10053000ED91FC910190F081E02D2A81622F0995C7
:1005400044EF58E060E070E0C7010F900F90DF913A
:10055000CF911F910F91FF90EF900C943D02EF927D
:10056000FF920F931F93CF93DF931F92CDB7DEB708
:10057000082F162F82E692E049830E94030282E64A
:10058000E82E82E0F82ED70114968D919C91159754
:10059000DC01ED91FC910190F081E02D602F099537
:1005A000F70184819581DC01ED91FC910190F0814E
:1005B000E02D612F0995F70184819581DC01ED9192
:1005C000FC910190F081E02D4981642F099547EB62
:1005D00056E060E070E0C7010F90DF91CF911F916E
:1005E0000F91FF90EF900C943D021F93CF93DF93F8
:1005F000182F82E692E00E940302C2E6D2E08C81CC
:100600009D81DC01ED91FC910190F081E02D6BE189
:1006100009958C819D81DC01ED91FC910190F08127
:10062000E02D612F09954AE754E060E070E0CE01CB
:10063000DF91CF911F910C943D02CF92DF92EF9208
:10064000FF921F93CF93DF93EC01162F633109F4D0
:1006500044C00E9403028C819D81DC01ED91FC91DC
:100660000190F081E02D612F09951A3021F08885E5
:100670009985891328C08F81EA85AB85288D398DAE
:100680004A8D5B8DB0E08A3029F4AE0FB11D0E9417
:10069000340A10C00E94290A6B017C012C893D8913
:1006A0004E895F89AE2FB0E00E94290A6C0D7D1D36
:1006B0008E1D9F1DAB01BC01435C5D4F6F4F7F4F93
:1006C00018861AE006C08F5F88874DE352E060E02D
:1006D00070E0CE010E943D021F8381E090E0DF9137
:1006E000CF911F91FF90EF90DF90CF900895CF9220
:1006F000DF92EF92FF920F931F93CF93DF936C01E2
:100700007A018B01C0E0D0E0CE15DF0589F0D80179
:100710006D918D01D601ED91FC910190F081E02D5C
:10072000C6010995892B11F47E0102C02196ECCFF8
:10073000C701DF91CF911F910F91FF90EF90DF9054
:10074000CF900895FC01918D828D981761F0828D74
:10075000DF01A80FB11D5D968C91928D9F5F9F73F5
:10076000928F90E008958FEF9FEF0895FC01918D97
:10077000828D981731F0828DE80FF11D858D90E004
:1007800008958FEF9FEF0895FC01918D228D892FA1
:1007900090E0805C9F4F821B91098F739927089589
:1007A00085EC91E00E94C40321E0892B09F420E04C
:1007B000822F0895FC01848DDF01A80FB11DA35A7B
:1007C000BF4F2C91848D90E001968F739927848F71
:1007D000A689B7892C93A089B1898C9180648C9368
:1007E000938D848D981306C00288F389E02D808153
:1007F0008F7D80830895EF92FF920F931F93CF9385
:10080000DF93EC0181E0888F9B8D8C8D981305C060
:10081000E889F989808185FD24C0F62E0B8D10E0D2
:100820000F5F1F4F0F731127E02E8C8DE8120CC045
:100830000FB607FCFACFE889F989808185FFF5CFEB
:10084000CE010E94DA03F1CF8B8DFE01E80FF11D7E
:10085000E35AFF4FF0820B8FEA89FB898081806227
:1008600007C0EE89FF896083E889F9898081806407
:10087000808381E090E0DF91CF911F910F91FF90F5
:10088000EF900895CF93DF93EC01888D8823C9F012
:10089000EA89FB89808185FD05C0A889B9898C9189
:1008A00086FD0FC00FB607FCF5CF808185FFF2CF24
:1008B000A889B9898C9185FFEDCFCE010E94DA031A
:1008C000E7CFDF91CF91089580E090E0892B29F068
:1008D0000E94D00381110C9400000895009769F0E4
:1008E000FC0101900020E9F73197AF01481B590B3B
:1008F000BC0185EC91E00C94770380E090E00895D2
:100900008F929F92AF92BF92CF92DF92EF92FF921F
:100910000F931F93CF93DF93CDB7DEB7A1970FB699
:10092000F894DEBF0FBECDBF6C01990FEE08FF0833
:10093000F7FE31C0E091C501F091C6010190F08150
:10094000E02D6DE285EC91E009958C01222733279B
:10095000A9012C193D094E095F0919A2CE01819602
:100960007C019AE0892E912CA12CB12CCA01B901ED
:10097000A50194010E94070A605DF70162937F015F
:10098000211531054105510589F7CF010E946E04FB
:10099000080F191F1EC0A701960119A28E010F5D35
:1009A0001F4F8AE0C82ED12CE12CF12CCA01B901CD
:1009B000A70196010E94070A605DF80162938F010A
:1009C000211531054105510589F7CF010E946E04BB
:1009D0008C0188E291E00E946E04800F911FA19625
:1009E0000FB6F894DEBF0FBECDBFDF91CF911F9140
:1009F0000F91FF90EF90DF90CF90BF90AF909F90BE
:100A00008F9008950E94650A1F920F920FB60F9261
:100A100011242F933F934F935F936F937F938F9303
:100A20009F93AF93BF93EF93FF93E091C301F09136
:100A3000C401309709F451C0968DA685B785858588
:100A400091FF04C09C91892329F447C09C9189237C
:100A500009F043C0A389B4899C9185898095892335
:100A60008C93868997890197F1F7608D718DA685A2
:100A7000B785558538E020E0CB010197F1F7822F4B
:100A800090E095958795282F4C91452309F0206893
:100A9000315091F7868D81FD20958091C10190E0C4
:100AA00001968F7399273091C201381749F0A091B0
:100AB000C101B0E0AF57BE4F2C938093C10103C07A
:100AC000868D8160868F828D938D0197F1F7A38942
:100AD000B4899C918589892B8C93FF91EF91BF916B
:100AE000AF919F918F917F916F915F914F913F91C6
:100AF0002F910F900FBE0F901F9018951F920F927D
:100B00000FB60F9211242F933F938F939F93AF9320
:100B1000BF938091790190917A01A0917B01B0916E
:100B20007C013091780123E0230F2D3720F40196CA
:100B3000A11DB11D05C026E8230F0296A11DB11D00
:100B4000209378018093790190937A01A0937B019F
:100B5000B0937C0180917D0190917E01A0917F01F5
:100B6000B09180010196A11DB11D80937D019093EC
:100B70007E01A0937F01B0938001BF91AF919F91BF
:100B80008F913F912F910F900FBE0F901F9018954E
:100B90001F920F920FB60F9211242F933F934F93F2
:100BA0005F936F937F938F939F93AF93BF93EF93D5
:100BB000FF9385EC91E00E94DA03FF91EF91BF91E2
:100BC000AF919F918F917F916F915F914F913F91E5
:100BD0002F910F900FBE0F901F9018951F920F929C
:100BE0000FB60F9211242F938F939F93EF93FF9340
:100BF000E091D501F091D6018081E091DB01F09187
:100C0000DC0182FD12C090818091DE018F5F8F73C5
:100C10002091DF01821751F0E091DE01F0E0EB530B
:100C2000FE4F958F8093DE0101C08081FF91EF918F
:100C30009F918F912F910F900FBE0F901F9018953D
:100C40001092C8011092C70188EE93E0A0E0B0E0D6
:100C50008093C9019093CA01A093CB01B093CC01BA
:100C600024E031E03093C6012093C50125EC30E04B
:100C70003093D2012093D10124EC30E03093D401A1
:100C80002093D30120EC30E03093D6012093D5019E
:100C900021EC30E03093D8012093D70122EC30E0F2
:100CA0003093DA012093D90126EC30E03093DC0157
:100CB0002093DB011092DE011092DF011092E0011F
:100CC0001092E101109281021092800280938202C0
:100CD00090938302A0938402B09385028CE191E00B
:100CE00090937F0280937E0210929502109294025C
:100CF0001092970210929602109299021092980206
:100D000010929B0210929A0260919C026E7F6D7FFE
:100D100060939C026695617081E0682786E00E947E
:100D2000720161E086E00E94A201E4EBF0E0E49150
:100D3000E0938E02E0EAF0E0E491F0E0EE0FFF1FB6
:100D4000EA57FF4F859194919093900280938F0280
:100D500060E085E00E94A20180919C0281FD04C0B8
:100D600061E085E00E94720185E080938A02E3EBF6
:100D7000F0E0E491E0938B02EFE9F0E0E491F0E041
:100D8000EE0FFF1FE057FF4F8591949190938D02D6
:100D900080938C02109265021092640284E191E0CB
:100DA00090936302809362028EE792E090936702D1
:100DB000809366028FEF8093700210927102089503
:100DC000CF93DF93CDB7DEB7E5970FB6F894DEBFCC
:100DD0000FBECDBF789484B5826084BD84B5816038
:100DE00084BD85B5826085BD85B5816085BD8091F6
:100DF0006E00816080936E0010928100809181006E
:100E00008260809381008091810081608093810065
:100E1000809180008160809380008091B100846027
:100E20008093B1008091B00081608093B000809188
:100E30007A00846080937A0080917A008260809347
:100E40007A0080917A00816080937A0080917A00A4
:100E5000806880937A001092C100E091D501F091F2
:100E6000D60182E08083E091D101F091D20110821D
:100E7000E091D301F091D4018FEC80831092DD01D9
:100E8000E091D901F091DA0186E08083E091D70109
:100E9000F091D801808180618083E091D701F09149
:100EA000D801808188608083E091D701F091D801DA
:100EB000808180688083E091D701F091D8018081A2
:100EC0008F7D808361E08DE00E94A20161E087E078
:100ED0000E94A20160E087E00E94720110929902D4
:100EE0001092980210929702109296021092950218
:100EF000109294028DEC90E090939B0280939A0262
:100F000090918A02963108F057C025E530E0309381
:100F10009502209394022BEC30E0309397022093BB
:100F2000960220E930E030939902209398022091B4
:100F30006800983050F031E09E3008F430E081E0F5
:100F400001C0880F3A95EAF701C084E0822B8093B4
:100F50006800983038F09E3040F0963148F020E03C
:100F600030E008C02DE630E005C02BE630E002C0DE
:100F70002CE630E03093920220939102983030F4C6
:100F800081E001C0880F9A95EAF70EC0292F30E062
:100F90009E3018F42850310902C02E50310981E0EA
:100FA00001C0880F2A95EAF78093930280919A02F4
:100FB00090919B020197F1F780919802909199028C
:100FC000892B21F18091C3019091C40102E08E37F9
:100FD0009007E1F0009711F00E94330180919C028C
:100FE0008E7F80939C021092C1011092C2018EE705
:100FF00092E09093C4018093C301E0919102F0913B
:101000009202908180919302892B808340E251EA81
:1010100067E070E082E692E00E943D0240E050E02E
:10102000BA0182E692E00E943D0282E692E00E94CE
:1010300003028091660290916702DC01ED91FC91C0
:101040000190F081E02D6FEF09954DE352E060E0F3
:1010500070E082E692E00E943D020E94DE014B01B8
:101060005C01F2E3CF2ED12CE12CF12C0E94DE01A9
:10107000DC01CB0188199909AA09BB09883E934074
:10108000A105B10558F0B1E0CB1AD108E108F1088B
:10109000E8EE8E0EE3E09E1EA11CB11CC114D1042B
:1010A000E104F10419F720E040E068E38BE10E94DD
:1010B0005B0280E40E94F5028AE08093690210924C
:1010C0006A0280E280936B0288E180936C0286E082
:1010D00080936D0282E380936E0284E40E94F502A5
:1010E00020E14CE068E084E00E945B0220E04CE1FB
:1010F00068E184E10E945B0287E30E94F50248E216
:1011000068E78BE00E94AF024AE463E282E10E945A
:10111000AF02809170028F3F59F062E00E94A201FD
:1011200040E261E68DE10E94AF0281E080937102AE
:1011300080E395E7A0E0B0E0809376029093770299
:10114000A0937802B093790284E398E0A0E0B0E045
:1011500080937A0290937B02A0937C02B0937D02ED
:101160008FEF80936F021092730110927201E0E88A
:101170002E2E312C85EC91E00E94C403181619061E
:101180000CF014C185EC91E00E94A20390937701CA
:10119000809376018BE291E00E946E04809176014B
:1011A000909177010E94800480917601909177015F
:1011B000C09724F18DE391E00E946E048091740148
:1011C000909175014AE0489F9001499F300D11248C
:1011D0008091760190917701C097820F931F909331
:1011E00075018093740188E591E00E946E048091FE
:1011F0007401909175010E948004D8C088E691E046
:101200000E946E0480917401909175010E94800487
:101210004091740150917501DE01D196FD0180E08D
:1012200090E055279A01082E02C0359527950A941B
:10123000E2F72170219301968530910599F78E018F
:101240000F5F1F4F480180E3F80111928A95E9F77B
:1012500040E050E08D91811103C022E030E002C0F7
:1012600022E330E0C901959587958A01081B190B87
:10127000C801865B9F4F280F391F82179307BCF464
:10128000FC0163E0F595E7956A95E1F7E80DF91D36
:10129000BC0167707727810102C0159507956A9593
:1012A000E2F7B8017081672B60830196E6CF435C5B
:1012B0005F4F413311E0510769F682E3A82EB12C4C
:1012C0009AE0E92E809172019091730101969093BA
:1012D00073018093720180917102811109C00091A4
:1012E0006F0210E0053011052CF005E010E002C09F
:1012F0000FEF10E0612C712CFF24F39410161106EF
:101300000CF0F12C4F2C512C20E34F2D6AE282E19E
:101310000E945B0280E090E08415950524F5C12CC5
:10132000D12C82E692E00E940302809166029091A5
:101330006702DC01ED91FC91D601A60DB71DA80D49
:10134000B91D0190F081E02D6C910995BFEFCB1A8A
:10135000DB0AE0E3CE16D10421F7F0E36F0E711C37
:1013600081E090E0D9CF2F2D30E040E050E0609157
:1013700076027091770280917802909179020E94B2
:10138000E309AB01BC0182E692E00E943D02011537
:10139000110509F4B1CFE092690201E0A01AB10889
:1013A00009F090CF10927501109274010E946404AC
:1013B000E1CE8CE191E090937F0280937E028EE7F4
:1013C00092E00C943301DB018F939F930E94290AD2
:1013D000BF91AF91A29F800D911DA39F900DB29FD1
:1013E000900D1124089597FB072E16F4009407D052
:1013F00077FD09D00E943C0A07FC05D03EF4909589
:1014000081959F4F0895709561957F4F0895A1E252
:101410001A2EAA1BBB1BFD010DC0AA1FBB1FEE1F6E
:10142000FF1FA217B307E407F50720F0A21BB30BB9
:10143000E40BF50B661F771F881F991F1A9469F735
:1014400060957095809590959B01AC01BD01CF0191
:1014500008950E94560AA59F900DB49F900DA49FD9
:10146000800D911D11240895B7FF0C94290A0E9444
:10147000290A821B930B0895AA1BBB1B51E107C0CD
:10148000AA1FBB1FA617B70710F0A61BB70B881F14
:10149000991F5A95A9F780959095BC01CD010895A3
:1014A000EE0FFF1F0590F491E02D0994A29FB0016B
:1014B000B39FC001A39F700D811D1124911DB29F88
:1014C000700D811D1124911D089581E090E0F89424
:1014D0000C946A0A10E0C2E6D0E004C0FE010E944B
:0E14E000500A2196C336D107C9F7F894FFCF02
:1014EE0000000000FB037703C403A203B60342040B
:1014FE00000000001D03770300000000A600770324
:10150E00FA0012018D00A5000D0A00496E636F6D81
:10151E00696E67427974652069733A2000496E637B
:10152E0072656D656E74696E6720696E7465676548
:10153E00722056616C756500696E74656765722000
:10154E006973206E6F773A005072696E74696E67B8
:02155E003A0051
:00000001FF
